:020000040800F2
:10000000A810002045010008410400083904000838
:100010003D040008770200081F0B000800000000E4
:1000200000000000000000000000000021060008A1
:100030002103000800000000C9040008350700087B
:100040005F0100085F0100085F0100085F01000810
:100050005F0100085F0100085F0100085F01000800
:100060005F0100085F0100085F0100085F010008F0
:100070005F0100085F0100085F0100085F010008E0
:100080005F0100085F0100085F0100085F010008D0
:100090005F0100085F0100085F0100085F010008C0
:1000A0005F0100085F0100085F0100085F010008B0
:1000B0005F0100085F0100085F0100085F010008A0
:1000C0005F0100085F0100085F0100085F01000890
:1000D0005F010008610800085F0100085F01000877
:1000E0005F0100085F0100085F0100085F01000870
:1000F0005F0100085F0100085F0100085F01000860
:100100005F0100085F0100085F0100085F0100084F
:10011000990700085F0100085F0100085F010008FF
:100120005F0100085F0100085F0100085F0100082F
:10013000DFF80CD000F06EF800480047E90E000828
:10014000A81000200648804706480047FEE7FEE763
:10015000FEE7FEE7FEE7FEE7FEE7FEE7FEE7FEE777
:10016000390700083101000840EA01039B0703D06A
:1001700009E008C9121F08C0042AFAD203E011F8E6
:10018000013B00F8013B521EF9D27047D2B201E0A8
:1001900000F8012B491EFBD270470022F6E710B58C
:1001A00013460A4604461946FFF7F0FF204610BDE5
:1001B0002DE9F05F0546002092469B46884606469C
:1001C000814640241BE0284641464746224600F02F
:1001D00042F853465A46C01A914110D31146184668
:1001E000224600F029F82D1A67EB01084F462246F7
:1001F0000120002100F020F817EB00094E41201EDD
:10020000A4F10104DFDC484631462A464346BDE8F6
:10021000F09F0000064C074D06E0E06840F0010347
:1002200094E8070098471034AC42F6D3FFF784FFF8
:100230002811000848110008202A04DB203A00FA9F
:1002400002F1002070479140C2F1200320FA03F32D
:10025000194390407047202A04DB203A21FA02F02B
:100260000021704721FA02F3D040C2F120029140F0
:1002700008431946704700BFFEE700002648007893
:10028000F4283FD124484078F3283BD12248807895
:10029000F22837D12048C078F12833D11E48C079E0
:1002A000AA2826D11C48407C552822D11A48007A19
:1002B0001A4908701848407A1749897A00EB0120DA
:1002C000164948701448C07A88701348007B124958
:1002D000497B00EB01201149C8700F48807B0871F1
:1002E0000D48C07B0C49097C00EB01200B4948718B
:1002F00010E000200949087048708870C8700871C3
:10030000487107E000200549087048708870C8707F
:100310000871487170470000980800209A0C00206E
:1003200070472DE9F04102460025002600200023F9
:100330000024002791F803C00CF00F0591F803C0CA
:100340000CF0100CBCF1000F03D091F802C04CEA85
:10035000050591F800C0BCF1000F31D014680020F1
:100360002BE04FF0010C0CFA00F3B1F800C00CEADE
:1003700003069E4220D183004FF00F0C0CFA03F7C6
:10038000BC4305FA03FC4CEA040491F803C0BCF139
:10039000280F06D14FF0010C0CFA00FCC2F814C073
:1003A0000AE091F803C0BCF1480F05D14FF0010CF1
:1003B0000CFA00FCC2F810C0401C0828D1D314600D
:1003C000B1F800C0BCF1FF0F34DD546800202EE00E
:1003D00000F1080C4FF0010808FA0CF3B1F800C066
:1003E0000CEA03069E4221D183004FF00F0C0CFA59
:1003F00003F7BC4305FA03FC4CEA040491F803C07C
:10040000BCF1280F05D100F1080C08FA0CF8C2F86D
:10041000148091F803C0BCF1480F07D100F1080C1B
:100420004FF0010808FA0CF8C2F81080401C0828A8
:10043000CED35460BDE8F08100BFFEE700BFFEE709
:100440007047000070B5002100230F22C47804B368
:10045000154C246804F4E064C4F5E064210AC1F199
:100460000403CA40447804FA03F184781440214319
:1004700009010E4C0678A155047804F01F050124EB
:10048000AC4005786D11AD0005F1E025C5F80041DF
:1004900009E0047804F01F050124AC40044D0678FF
:1004A000761145F8264070BD0CED00E000E400E058
:1004B00080E100E002490143024A116070470000F8
:1004C0000000FA050CED00E07047000029B1064A73
:1004D000D2690243044BDA6104E0034AD2698243E1
:1004E000014BDA61704700000010024029B1064A52
:1004F00012690243044B1A6104E0034A1269824301
:10050000014B1A61704700000010024029B1064AF1
:1005100092690243044B9A6104E0034A9269824360
:10052000014B9A61704700000010024029B1064A51
:10053000D2680243044BDA6004E0034AD268824383
:10054000014BDA60704700000010024030B5002116
:100550000022002400232D4D6D6805F00C0121B10F
:10056000042905D0082923D105E0294D056022E0A2
:10057000274D05601FE0254D6D6805F47012234D71
:100580006D6805F48034022505EB92421CB9214DBB
:10059000554305600BE01D4D6D6805F400351DB138
:1005A0001C4D5543056002E0194D5543056002E0BE
:1005B000174D056000BF00BF144D6D6805F0F001D8
:1005C0000909154D6B5C0568DD4045600F4D6D6890
:1005D00005F4E061090A104D6B5C4568DD408560FB
:1005E0000A4D6D6805F46051C90A0B4D6B5C456896
:1005F000DD40C560054D6D6805F44041890B074D30
:100600006B5CC568B5FBF3F5056130BD00100240B9
:1006100000127A0000093D00140000202400002090
:10062000704710B500F002F810BD00000CB50020B6
:10063000019000903348006840F4803031490860F0
:1006400000BF3048006800F4003000900198401C62
:100650000190009818B90198B0F5A06FF1D1294820
:10066000006800F4003010B10120009001E000208B
:1006700000900098012843D12348006840F0100002
:10068000214908600846006820F003000860084619
:10069000006840F0020008601A4840681949486044
:1006A0000846406848600846406840F480604860FA
:1006B0000846406820F47C1048600846406840F4D2
:1006C000E81048600846006840F08070086000BF8D
:1006D0000C48006800F000700028F9D00948406814
:1006E00020F00300074948600846406840F00200D7
:1006F000486000BF0348406800F00C000828F9D1AA
:100700000CBD00000010024000200240042808D167
:100710004FF0E021096941F004014FF0E02211613E
:1007200007E04FF0E021096921F004014FF0E022D9
:10073000116170477047000010B51348006840F021
:1007400001001149086008464068104908400E49F8
:100750004860084600680E4908400B490860084692
:10076000006820F4802008600846406820F4FE00FD
:1007700048604FF41F008860FFF753FF4FF00060A0
:100780000449086010BD0000001002400000FFF89E
:10079000FFFFF6FE08ED00E010B540F225512C48B1
:1007A00000F0FCF800283BD0294800F0B3F9C4B2AF
:1007B000F42C03D027480078012831D101202549A5
:1007C0000870F52C0BD02448B0F82E0122490C54A7
:1007D0000846B0F82E01401CA1F82E0120E0F52CAF
:1007E0001ED11D48B0F82E011B490C544FF48061F6
:1007F0001A48FFF7D2FC1848B0F82E2101461748D6
:10080000FFF7B2FC1448B0F82E011449A1F8000417
:100810000020104908701049A1F82E01FFF72EFDA5
:1008200040F224410A4800F0B9F878B1084800F0D5
:1008300071F9C4B20848B0F82E0138B1064890F8F2
:100840002C0118B90120044981F82C0110BD0000C9
:10085000004C00403200002068070020980800206B
:1008600010B540F225511D4800F098F810B31B4810
:1008700000F050F9C4B21A48008800F40040C8B92A
:100880001748008800F4804060B10A2C03D0002093
:100890001349088020E01248008840F400401049C5
:1008A000088019E00D2C06D10D48008840F48040E6
:1008B0000B49088010E00A480088C0F30D00094980
:1008C0000C5407480088401C0549088008460088E9
:1008D000C72801DD0020088010BD0000003801405D
:1008E000300000203400002021B1828942F40052FF
:1008F000828104E082894DF6FF731A40828170473D
:1009000010B504462048844209D101218803FFF72D
:100910000DFE00214FF48040FFF708FE32E01B4837
:10092000844209D101214804FFF7E0FD00214FF482
:100930000030FFF7DBFD25E01548844209D1012195
:100940008804FFF7D3FD00214FF48020FFF7CEFD90
:1009500018E01048844209D10121C804FFF7C6FD00
:1009600000214FF40020FFF7C1FD0BE00A4884424C
:1009700008D101210805FFF7B9FD00214FF48010CF
:10098000FFF7B4FD10BD00000038014000440040F6
:1009900000480040004C00400050004070B5024646
:1009A000002400230025002040F66A16B14200D141
:1009B00000BFC1F3421501F01F03012606FA03F33D
:1009C000012D02D19689334006E0022D02D1168A0C
:1009D000334001E0968A33400C12012606FA04F4F3
:1009E0001688344013B10CB1012000E0002070BD26
:1009F000F0B50346002400260025002040F66A17C3
:100A0000B94200D100BF1846C1F3421401F01F06DD
:100A1000012707FA06F5012C01D10C3004E0022C65
:100A200001D1103000E014301AB107682F4307607D
:100A300002E00768AF430760F0BD00002DE9F04712
:100A400086B005460E460024A24600BFA1460027F8
:100A5000B08900B100BF2F462C8A4CF6FF700440CD
:100A6000F08804432C82AC894EF6F3100440B08821
:100A700031890843718908430443AC81AC8A4FF63D
:100A8000FF400440B0890443AC8201A8FFF75EFD3B
:100A90001F48874202D1DDF810A001E0DDF80CA06C
:100AA000A88900F4004040B10AEBCA0000EB0A102C
:100AB00031684900B0FBF1F807E00AEBCA0000EB2F
:100AC0000A1031688900B0FBF1F86420B8FBF0F03F
:100AD00004012009642101FB1089A88900F4004069
:100AE00040B1322000EBC900B0FBF1F000F007008C
:100AF000044308E0322000EB09106421B0FBF1F060
:100B000000F00F0004432C8106B0BDE8F087000020
:100B10000038014001468888C0F30800704700BFD4
:100B2000FEE700000FB4054B10B503A9044A029874
:100B300000F018F810BC5DF814FB0000CD0E0008A2
:100B40002C00002002E008C8121F08C1002AFAD1B8
:100B500070477047002001E001C1121F002AFBD13D
:100B6000704700002DE9FF4F8DB09B460F460446AD
:100B7000002606E025280BD05A460F999047641CA2
:100B8000761C20780028F5D111B03046BDE8F08FF2
:100B90000025A8460122984900E0054314F8013FCA
:100BA000203B02FA03F00842F7D120782E2817D113
:100BB00014F8010F45F004052A280ED06FF02F021B
:100BC0002078A0F1300109290AD808EB880102EB4E
:100BD000410100EB0108641CF2E757F8048B641C28
:100BE00020786C280DD004DC4C2812D06A2811D152
:100BF00004E074280DD07A280CD10AE045F40015E1
:100C000007E0617845F48015814202D1641C05F546
:100C10008015641C2278692A45D008DC002AB3D0EC
:100C2000582A69D0632A10D0642A08D13BE0702A80
:100C300067D0732A13D0752A5CD0782A5CD010460E
:100C40005A460F999047761CD3E017F8040B8DF89D
:100C5000000000208DF80100E946012003E057F86C
:100C6000049B4FF0FF3069074FF0000501D40AE004
:100C70006D1C45450DDA8542FADB19F8051000298F
:100C8000F6D106E06D1C8542FCDB19F80510002941
:100C9000F8D12E4404E019F8010B5A460F999047F9
:100CA0006D1EF8D2A5E00A200021CDE90801C5F3A8
:100CB000025002280DD001CFC117031E71F10003AD
:100CC0000DDA4FF0000CD0EB0C006CEB01012D2382
:100CD00008E0FF1D27F00707F7E80201EDE72B0505
:100CE00004D52B238DF8283001233BE0EB0739D0C6
:100CF0002023F7E70A2000E010200021CDE90801B9
:100D000007E01020002145F00405CDE908014FF06F
:100D10000808C5F3025002280FD001CF00214FF080
:100D2000000A2B071FD5702A0DD0DDE908C38CF00F
:100D3000100C5CEA030C0CD015E0FF1D27F0070730
:100D4000F7E80201EBE740228DF828204FF0010A76
:100D50000BE050EA010306D030238DF828308DF8DF
:100D6000292002239A46582A04D024A20DF12009F2
:100D70000B9209E026A2F9E7DDE90823FFF718FA4C
:100D80000B9B9B5C09F8013D50EA0102F4D1ADEBED
:100D9000090020300890680701D44FF00108089935
:100DA000884502DDA8EB010000E000208046002518
:100DB00006E00AA85A46405D0F9990476D1C761CC4
:100DC0005545F6DB04E030205A460F999047761CD3
:100DD000B8F10001A8F10108F5DC05E019F8010BF4
:100DE0005A460F999047761C0899481E089000298A
:100DF000F4DC641CC5E60000092801003031323300
:100E00003435363738396162636465660000000046
:100E10003031323334353637383941424344454630
:100E20000000000010B56FF00400FFF76FFC0A48E7
:100E300000680A49B0FBF1F00949087008460078DB
:100E400000EB4001C1EBC0104FF6FF7101EAC0009A
:100E50000449088010BD00000000002000127A0044
:100E6000280000202A0000200146114A12884A4327
:100E70004FF0E0235A6100229A611A46126942F04B
:100E800001021A6100BF4FF0E022106900F0010278
:100E90001AB100F48032002AF5D04FF0E022126936
:100EA00022F001024FF0E0231A6100229A6170479C
:100EB0002A00002030B50446002504E04FF47A7083
:100EC000FFF7D2FF641EA542F8D330BD00BF054A2C
:100ED000128802F04002002AF9D0C2B2014B1B1D59
:100EE0001A807047003801404FF47A3000F0CCF897
:100EF0004FF47A3000F068F8FFF794FF4FF4A060E9
:100F0000FFF7D8FA23E01248017812A0FFF70AFE93
:100F10000F48417813A0FFF705FE0D48817816A011
:100F2000FFF700FE0A48C17818A0FFF7FBFD08484C
:100F300001791BA0FFF7F6FD054841791DA0FFF7D9
:100F4000F1FD20A0FFF7EEFD0120FFF7B3FFDAE788
:100F50009A0C0020C4BFB1EAD7B4CCAC3A25780DC6
:100F60000A000000D4CBB6AFC4BFB1EABEE0C0EB0C
:100F70003A2564636D0D0A00D4CBB6AFC4BFB1EAA5
:100F8000C4DCC1BFD6B53A25640D0A00BEB2D6B9DD
:100F9000C4BFB1EABEE0C0EB3A2564636D0D0A0040
:100FA000BEB2D6B9C4BFB1EAC4DCC1BFD6B53A251A
:100FB000640D0A00CCBDB2E2BEE0C0EB3A2564632A
:100FC0006D0D0A000A0D00001CB504460121102019
:100FD000FFF79CFA0121C804FFF778FA2648FFF7CB
:100FE0008FFC4FF48060ADF8000003208DF8020004
:100FF00018208DF8030069462048FFF792F94FF456
:101000000060ADF8000048208DF8030069461B48D9
:10101000FFF787F91A480460002019498880C880C2
:10102000088188810C2048811348FFF707FD0121C2
:101030001148FFF759FC012240F225510E48FFF7F5
:10104000D7FC012240F224410B48FFF7D1FC3420A9
:101050008DF8040002208DF8050003208DF80600AD
:1010600001208DF8070001A8FFF7ECF900200549E1
:1010700081F82C011CBD0000004C00400010014014
:10108000580700206807002010B586B004460121EB
:1010900044F20400FFF73AFA4FF40070ADF8140080
:1010A00003208DF8160018208DF8170005A91C489C
:1010B000FFF737F94FF48060ADF8140004208DF885
:1010C000170005A91648FFF72CF925208DF8000018
:1010D00003208DF801008DF8020001208DF8030037
:1010E0006846FFF7AFF901940020ADF80800ADF8AD
:1010F0000A00ADF80C00ADF810000C20ADF80E00A1
:1011000001A90848FFF79AFC012240F22551054841
:10111000FFF76EFC01210348FFF7E6FB06B010BDA8
:10112000000801400038014048110008000000207C
:1011300034000000440B00087C110008340000203B
:1011400074100000540B000800A24A0400000000C4
:101150000000000001020304060708090000000067
:101160000102030401020304060708090204060839
:0C11700000000000000000000000000073
:0400000508000131BD
:00000001FF
