:020000040800F2
:10000000F80500204501000829080008C10700087C
:1000100025080008D5010008E70F000800000000CF
:10002000000000000000000000000000390A000885
:100030009102000800000000E10800084D0B0008D4
:100040005F0100085F0100085F0100085F01000810
:100050005F0100085F010008950200085F010008C9
:100060005F0100085F0100085F0100085F010008F0
:100070005F0100085F0100085F0100085F010008E0
:100080005F0100085F0100085F0100085F010008D0
:100090005F0100085F0100085F0100085F010008C0
:1000A0005F0100085F0100085F0100085F010008B0
:1000B0005F0100085F0100085F0100085F010008A0
:1000C0005F0100085F0100085F0100085F01000890
:1000D0005F010008B10B00085F010008C90C0008AF
:1000E000B10200085F0100085F0100085F0100081D
:1000F0005F0100085F0100085F0100085F01000860
:100100005F0100085F0100085F0100085F0100084F
:100110005F0100085F0100085F0100085F0100083F
:100120005F0100085F0100085F0100085F0100082F
:10013000DFF80CD000F03CF800480047C51100087B
:10014000F80500200648804706480047FEE7FEE71E
:10015000FEE7FEE7FEE7FEE7FEE7FEE7FEE7FEE777
:10016000510B00083101000840EA01039B0703D04E
:1001700009E008C9121F08C0042AFAD203E011F8E6
:10018000013B00F8013B521EF9D27047D2B201E0A8
:1001900000F8012B491EFBD270470022F6E710B58C
:1001A00013460A4604461946FFF7F0FF204610BDE5
:1001B000064C074D06E0E06840F0010394E80700B4
:1001C00098471034AC42F6D3FFF7B6FF6C13000823
:1001D0008C13000800BFFEE710B52B4840780128BB
:1001E00051D10020284948700846007901280CD1D7
:1001F0000020C8712548C079132844D12348007ACB
:10020000002840D101F03EF83DE01F480079022867
:1002100010D100201C49C8711C488079042832D1B3
:100220001A48C07912282ED11848007A58BB01F01C
:100230003BF828E014480079032810D10020124927
:10024000C8711248807902281DD11048C079202831
:1002500019D10E48007AB0B901F002F813E00A484B
:10026000007904280FD100200749C8710748807918
:10027000022808D10548C079212804D10348007A12
:1002800008B900F0DBFF10BDB7000020C20100205C
:100290007047000010B5012000F020F820B10120C7
:1002A0000249087000F014F810BD00002F00002073
:1002B00010B54FF4005000F011F828B101200349A7
:1002C0000870400300F004F810BD0000300000206A
:1002D00001490860704700001404014001460020F5
:1002E0000022074B1B6803EA0102054B14331B680D
:1002F0000B4013B10AB1012000E00020704700005C
:1003000000040140002123498279002A3AD00A469C
:10031000126803689A430B461A600A1D1268036844
:100320009A430B1D1A60027911440A6803681A4344
:100330000A60184A0832126803689A43154B08335A
:100340001A601A1D126803689A43124B0C331A6024
:100350004279102A0ED11A1F126803681A430D4BF6
:1003600008331A601A1D126803681A43094B0C33CC
:100370001A600DE00749427911440A6803681A437C
:100380000A6005E0027911440A6803689A430A602A
:1003900070470000000401400EB50121052000F067
:1003A000C1FA0121112000F0BDFA00F03EFA01204F
:1003B000ADF8080004208DF80B0002A9194800F0E0
:1003C00055F80021084600F031F801200090002087
:1003D0008DF8040008208DF8050001208DF8060036
:1003E0006846FFF78FFF4FF40050ADF80800042077
:1003F0008DF80B0002A90C4800F038F80D210220FE
:1004000000F014F84FF40050009000208DF8040024
:100410000C208DF8050001208DF806006846FFF7D6
:1004200071FF0EBD000801400010014030B50022F0
:100430008B071C0F0F2303FA04F20B4B8C1053F89D
:1004400024309343084C8D1044F8253023468C10FB
:1004500053F824308C07240F00FA04F42343024C91
:100460008D1044F8253030BD080001402DE9F041E1
:10047000024600250026002000230024002791F8D2
:1004800003C00CF00F0591F803C00CF0100CBCF188
:10049000000F03D091F802C04CEA050591F800C0A6
:1004A000BCF1000F31D0146800202BE04FF0010C9C
:1004B0000CFA00F3B1F800C00CEA03069E4220D10A
:1004C00083004FF00F0C0CFA03F7BC4305FA03FC52
:1004D0004CEA040491F803C0BCF1280F06D14FF098
:1004E000010C0CFA00FCC2F814C00AE091F803C039
:1004F000BCF1480F05D14FF0010C0CFA00FCC2F81A
:1005000010C0401C0828D1D31460B1F800C0BCF161
:10051000FF0F34DD546800202EE000F1080C4FF08E
:10052000010808FA0CF3B1F800C00CEA03069E4279
:1005300021D183004FF00F0C0CFA03F7BC4305FAEE
:1005400003FC4CEA040491F803C0BCF1280F05D168
:1005500000F1080C08FA0CF8C2F8148091F803C0F6
:10056000BCF1480F07D100F1080C4FF0010808FA60
:100570000CF8C2F81080401C0828CED35460BDE8A7
:10058000F0814161704701617047000010B5322170
:100590000B48FFF702FE32210A48FFF7FEFD00205C
:1005A00007498886074988860C200749087000207B
:1005B00048708870C8700871C8718871487110BD22
:1005C0008C010020C2010020B700002010B5FFF709
:1005D000DDFF0A200649087004200871054800F074
:1005E000D3F800BF024840780028FBD010BD0000BF
:1005F000B70000205800002010B5FFF7C7FF0C20FF
:100600000649087001200871054800F0CBF800BFCA
:10061000024840780028FBD010BD0000B700002041
:100620004600002010B5FFF7B1FF0C200649087006
:1006300002200871054800F0B5F800BF0248407874
:100640000028FBD010BD0000B70000203E000020B5
:1006500010B50446EF2C03D045480078012848D156
:100660000120434908704348818E43480078401E6A
:1006700081423FD03F48808E3E490C540846808ED0
:10068000401C88860846007A012817D00846007A60
:10069000062813D00846007A07280FD00846007AAB
:1006A00008280BD00846007A092807D00846007AA7
:1006B0000A2803D00846007A032857D101202E4982
:1006C000487000202A4908702C4908700BE029481E
:1006D0002A4A1278815C2AA000F088FC274800781A
:1006E000401C264908702348808E24490978884296
:1006F000EDDC3BE01F48818E1F480078401E8142A0
:1007000034D11C48808E1B490C5432211D48FFF700
:1007100044FD1848828E01461A48FFF725FD15480A
:10072000808E1849888600201149087011498886F2
:1007300032211048FFF731FD0020104908700BE00E
:1007400010480E4A1278815C0DA000F04FFC0B4857
:100750000078401C094908700A48808E401C0749EF
:1007600009788842ECDC01200349487010BD000084
:10077000BF0000208C010020B7000020C100002035
:1007800025630000C201002070B50446002500BFAB
:1007900005E014F8010B00F0EBFA681CC5B20A2D55
:1007A000F7DB70BD70B50446002500BF05E014F806
:1007B000010B00F0DDFA681CC5B2082DF7DB70BD37
:1007C00000BFFEE708B50121082000F0ABF82020AB
:1007D000ADF8000010208DF8030003208DF8020012
:1007E00069460F48FFF742FE0120ADF80000694658
:1007F0000B48FFF73BFE0220ADF8000069460848B1
:10080000FFF734FE20210648FFF7BDFE0121044812
:10081000FFF7B9FE02210248FFF7B5FE08BD000050
:10082000000C014000BFFEE7704708B54FF4C06000
:1008300000F04CF806208DF8000001208DF8010032
:100840008DF802008DF80300684600F007F82820B4
:100850008DF80000684600F001F808BD70B5002171
:1008600000230F22C47804B3154C246804F4E06418
:10087000C4F5E064210AC1F10403CA40447804FAD3
:1008800003F184781440214309010E4C0678A155E8
:10089000047804F01F050124AC4005786D11AD000B
:1008A00005F1E025C5F8004109E0047804F01F05D2
:1008B0000124AC40044D0678761145F8264070BD01
:1008C0000CED00E000E400E080E100E002490143BB
:1008D000024A1160704700000000FA050CED00E0CC
:1008E0007047000029B1064AD2690243044BDA611D
:1008F00004E0034AD2698243014BDA617047000089
:100900000010024029B1064A12690243044B1A61E1
:1009100004E0034A12698243014B1A6170470000E8
:100920000010024029B1064A92690243044B9A61C1
:1009300004E0034A92698243014B9A6170470000C8
:100940000010024029B1064AD2680243044BDA6023
:1009500004E0034AD2688243014BDA60704700002A
:100960000010024030B500210022002400232D4D4C
:100970006D6805F00C0121B1042905D0082923D1A7
:1009800005E0294D056022E0274D05601FE0254D5B
:100990006D6805F47012234D6D6805F480340225EE
:1009A00005EB92421CB9214D554305600BE01D4DEE
:1009B0006D6805F400351DB11C4D5543056002E01E
:1009C000194D5543056002E0174D056000BF00BF9B
:1009D000144D6D6805F0F0010909154D6B5C056853
:1009E000DD4045600F4D6D6805F4E061090A104D6A
:1009F0006B5C4568DD4085600A4D6D6805F46051AB
:100A0000C90A0B4D6B5C4568DD40C560054D6D68DE
:100A100005F44041890B074D6B5CC568B5FBF3F5E8
:100A2000056130BD0010024000127A0000093D004F
:100A30001400002024000020704710B500F002F8D8
:100A400010BD00000CB500200190009033480068F4
:100A500040F480303149086000BF3048006800F43D
:100A6000003000900198401C0190009818B901983E
:100A7000B0F5A06FF1D12948006800F4003010B142
:100A80000120009001E0002000900098012843D14F
:100A90002348006840F010002149086008460068BB
:100AA00020F0030008600846006840F0020008607B
:100AB0001A48406819494860084640684860084636
:100AC000406840F4806048600846406820F47C102C
:100AD00048600846406840F4E810486008460068EE
:100AE00040F08070086000BF0C48006800F00070A3
:100AF0000028F9D00948406820F003000749486001
:100B00000846406840F00200486000BF0348406863
:100B100000F00C000828F9D10CBD000000100240C4
:100B200000200240042808D14FF0E021096941F07B
:100B300004014FF0E022116107E04FF0E021096964
:100B400021F004014FF0E02211617047704700006E
:100B500010B51348006840F00100114908600846CC
:100B60004068104908400E494860084600680E4930
:100B700008400B4908600846006820F4802008609F
:100B80000846406820F4FE0048604FF41F0088606B
:100B9000FFF753FF4FF000600449086010BD0000EC
:100BA000001002400000FFF8FFFFF6FE08ED00E035
:100BB00010B540F225511D4800F051F910B31B4803
:100BC00000F008FAC4B21A48008800F40040C8B91E
:100BD0001748008800F4804060B10A2C03D0002040
:100BE0001349088020E01248008840F40040104972
:100BF000088019E00D2C06D10D48008840F4804093
:100C00000B49088010E00A480088C0F30D0009492C
:100C10000C5407480088401C054908800846008895
:100C2000C72801DD0020088010BD00000038014009
:100C30003C000020C40000201FB5134800F0B4F8A9
:100C40004FF4E13000900020ADF80400ADF806004C
:100C5000ADF80800ADF80C000C20ADF80A006946AC
:100C6000094800F04BF9012240F22551064800F0F6
:100C700020F9012240F22441034800F01AF9012131
:100C8000014800F085F81FBD0048004008B54FF44A
:100C90000060ADF8000004208DF8030069460948A3
:100CA000FFF7E4FB4FF48060ADF8000003208DF8FF
:100CB000020018208DF8030069460248FFF7D6FBB2
:100CC00008BD0000000C014010B5002440F2255181
:100CD000104800F0C4F830B10E4800F07BF9C4B2FF
:100CE0002046FFF7B5FC40F224410A4800F0B7F86F
:100CF00070B1084800F06EF9C4B20748808E38B170
:100D0000054890F8320018B90120034981F83200F3
:100D100010BD0000004800408C01002010B500F01C
:100D20001DF8FFF7B3FFFFF787FF00F003F8FFF7A9
:100D30002DFC10BD08B527208DF8000003208DF88C
:100D40000100054880788DF8020001208DF803002D
:100D50006846FFF783FD08BD2800002010B501217B
:100D60000820FFF7DFFD01218804FFF7BBFD10BD60
:100D700010B504462146054800F031F900BF802136
:100D8000024800F05FF80028F9D010BD004800408C
:100D900021B1828942F40052828104E082894DF6B9
:100DA000FF731A408281704710B504462048844280
:100DB00009D101218803FFF7C5FD00214FF48040D0
:100DC000FFF7C0FD32E01B48844209D101214804ED
:100DD000FFF798FD00214FF40030FFF793FD25E069
:100DE0001548844209D101218804FFF78BFD0021B9
:100DF0004FF48020FFF786FD18E01048844209D1A7
:100E00000121C804FFF77EFD00214FF40020FFF709
:100E100079FD0BE00A48844208D101210805FFF75B
:100E200071FD00214FF48010FFF76CFD10BD000034
:100E3000003801400044004000480040004C0040A1
:100E40000050004002460020B1F5007F00D100BFF5
:100E500013880B400BB1012000E00020704770B5F3
:100E60000246002400230025002040F66A16B14205
:100E700000D100BFC1F3421501F01F03012606FA9D
:100E800003F3012D02D19689334006E0022D02D1F1
:100E9000168A334001E0968A33400C12012606FA86
:100EA00004F41688344013B10CB1012000E0002096
:100EB00070BDF0B50346002400260025002040F652
:100EC0006A17B94200D100BF1846C1F3421401F0BD
:100ED0001F06012707FA06F5012C01D10C3004E0AA
:100EE000022C01D1103000E014301AB107682F43F2
:100EF000076002E00768AF430760F0BD2DE9F047E7
:100F000086B005460E460024A24600BFA146002733
:100F1000B08900B100BF2F462C8A4CF6FF70044008
:100F2000F08804432C82AC894EF6F3100440B0885C
:100F300031890843718908430443AC81AC8A4FF678
:100F4000FF400440B0890443AC8201A8FFF70AFDCA
:100F50001F48874202D1DDF810A001E0DDF80CA0A7
:100F6000A88900F4004040B10AEBCA0000EB0A1067
:100F700031684900B0FBF1F807E00AEBCA0000EB6A
:100F80000A1031688900B0FBF1F86420B8FBF0F07A
:100F900004012009642101FB1089A88900F40040A4
:100FA00040B1322000EBC900B0FBF1F000F00700C7
:100FB000044308E0322000EB09106421B0FBF1F09B
:100FC00000F00F0004432C8106B0BDE8F08700005C
:100FD0000038014001468888C0F308007047C1F31B
:100FE00008028280704700BFFEE700000FB4054B87
:100FF00010B503A9044A029800F017F810BC5DF878
:1010000014FB0000A91100083800002002E008C805
:10101000121F08C1002AFAD170477047002001E072
:1010200001C1121F002AFBD170472DE9F84F9946E4
:10103000924688460546002706E025280AD05146F4
:101040004A4690476D1C7F1C28780028F5D1384609
:10105000BDE8F88F002315F8011F18462E2915D179
:1010600015F8011F04232A290DD06FF02F022978CB
:10107000A1F13004092C09D800EB800002EB4000FC
:1010800008446D1CF3E758F8040B6D1C2A78002AFD
:10109000DDD0632A07D0732A0FD0104651464A4646
:1010A00090477F1C2AE018F8042B8DF800200021BF
:1010B0008DF801106E46012103E058F8046B4FF0E3
:1010C000FF315A074FF0000401D409E0641C844248
:1010D0000BDA8C42FADB325D002AF7D105E0641CA2
:1010E0008C42FCDB305D0028F9D1274404E016F87F
:1010F000010B51464A469047641EF8D26D1CA3E787
:1011000010B56FF00400FFF70DFD0A4800680A49AA
:10111000B0FBF1F0094908700846007800EB400187
:10112000C1EBC0104FF6FF7101EAC000044908800E
:1011300010BD00000000002000127A0032000020E4
:10114000340000200146114A12884A434FF0E02340
:101150005A6100229A611A46126942F001021A612C
:1011600000BF4FF0E022106900F001021AB100F454
:101170008032002AF5D04FF0E022126922F00102FD
:101180004FF0E0231A6100229A617047340000207A
:1011900030B50446002504E04FF47A70FFF7D2FF23
:1011A000641EA542F8D330BD00BF054A128802F084
:1011B0004002002AF9D0C2B2014B1B1D1A807047B1
:1011C000003801404FF4E13000F080F8FFF798FF5D
:1011D000022017498870FFF7A1FDFFF7F3FAFFF728
:1011E000DBF824E01348007801280AD1FFF704FA5D
:1011F000FEF7F2FF0220FFF7CBFF00200D49087039
:1012000015E00D48007801280AD1FFF7DFF9FEF755
:10121000E3FF0220FFF7BCFF00200749087006E04B
:10122000FFF700FAFEF7D8FF0220FFF7B1FFD9E77A
:10123000280000202F0000203000002010B50221DF
:101240000648FFF79EF90120FFF7A2FF022103489D
:10125000FFF799F90120FFF79BFF10BD000C01403B
:1012600010B502210648FFF78CF90120FFF790FF27
:1012700002210348FFF787F90120FFF789FF10BD1E
:10128000000C014010B520210648FFF77AF9012033
:10129000FFF77EFF20210348FFF775F90120FFF7D4
:1012A00077FF10BD000C014010B501210648FFF783
:1012B00068F90120FFF76CFF01210348FFF763F98C
:1012C0000120FFF765FF10BD000C014010B586B08E
:1012D0000446012144F20400FFF724FB4FF40070A0
:1012E000ADF8140003208DF8160018208DF81700B3
:1012F00005A91C48FFF7BAF84FF48060ADF8140058
:1013000004208DF8170005A91648FFF7AFF825202F
:101310008DF8000003208DF801008DF802000120F7
:101320008DF803006846FFF799FA01940020ADF8A4
:101330000800ADF80A00ADF80C00ADF810000C2064
:10134000ADF80E0001A90848FFF7D8FD012240F2D0
:1013500025510548FFF7ADFD01210348FFF718FDB2
:1013600006B010BD00080140003801408C13000891
:1013700000000020C40000000C10000850140008F9
:10138000C4000020340500001C10000800A24A041C
:101390000000000000000000010203040607080925
:1013A000000000000102030401020304060708090B
:1013B0000204060800000000000000000000000019
:1013C00000000000000000000000EFAA1200000072
:1013D0000012EFAA130000000013EFAA2000000083
:1013E00002000123EFAA210000000021EFAAC000A3
:1013F00000000101C2EFAAC00000000100C1EFAA75
:10140000C10000000101C3EFAAC10000000100C239
:10141000EFAAC20000000101C4EFAAC2000000014F
:1014200000C3EFAA300000000030EFAAC3000000A4
:1014300001C3EFAA51000000010456EFAAC4000046
:101440000000C400000000000000000000000000D8
:0400000508000131BD
:00000001FF
